:040000009BEF75F00D
:10EAEC00770E0F6E000E106E1FEC76F0F8EC75F0D2
:10EAFC001200016EACA285EF75F087EF75F080EF18
:10EB0C0075F001C0ADFF010E1200800F810F820F56
:10EB1C00830F840F890F8A0F8B0F8C0F8D0F920F21
:10EB2C00930F940F950F960F0102160EF66EEB0EC7
:10EB3C00F76E000EF86E00EE58F010EE20F00900A3
:10EB4C00F5CFEEFFE550E150FAE100EE78F0070E5C
:10EB5C00EE6AE806FDE1000EF86E0001D6EF75F0E6
:10EB6C0044504510D8B4BDEF75F0BFEF75F0D5EF3C
:10EB7C0075F0AB9E948C948E44C038F045C039F03F
:10EB8C000AEC7AF044C001F045C002F0FAEC76F0E1
:10EB9C0044C001F045C002F09DEC76F0AB8E120043
:10EBAC0076EC75F0410E7FEC75F00B0E576E260E61
:10EBBC00566E5E0EE82EFED7562EFCD7572EFAD781
:10EBCC00420E7FEC75F00B0E576E260E566E5E0ED7
:10EBDC00E82EFED7562EFCD7572EFAD7D8EF75F065
:10EBEC0000EF00F0800E466E250E476E000E486E4C
:10EBFC00000E496E000E4A6E4B8A4B9C4B9E4C8A03
:10EC0C004C9C4C9E000E4E6E000E4F6E000E506EC5
:10EC1C00000E516E000E546E000E556E000E526EAC
:10EC2C00000E536E460E446E000E456EB6EC75F03B
:10EC3C0012000F501010D8A426EF76F028EF76F0C3
:10EC4C002AEF76F057EF76F07EC012F00FC0D9FFA6
:10EC5C0010C0DAFFDF500F0B116E12501118F80BA9
:10EC6C001118126E0FC0D9FF10C0DAFFDF38070B76
:10EC7C00116E11461146114612501118C70B11187E
:10EC8C00126E129C0FC0D9FF10C0DAFFDFAE02D09B
:10EC9C00128E01D0129E120E0B6E000E0C6E58ECE2
:10ECAC0076F012000B500C10D8B45FEF76F061EFD9
:10ECBC0076F081EF76F00BC0D9FF0CC0DAFFDF30B5
:10ECCC00E832E832070B0D6E080E0D6070EF76F02F
:10ECDC0072EF76F081EF76F00BC0D9FF0CC0DAFF43
:10ECEC00DF50070B0D6E040E0D647FEF76F081EF95
:10ECFC0076F085EF76F0000E0E6E9BEF76F00BC083
:10ED0C0001F00CC002F07FEC78F00E6E0BC001F03D
:10ED1C000CC002F00BC0D9FF0CC0DAFF000EDFBE36
:10ED2C00010E036EDAEC77F00E6E0E50120020EE30
:10ED3C0006F00150D9260250DA22DFAAA8EF76F0AD
:10ED4C00AAEF76F0EBEF76F0AB8820EE06F00150F0
:10ED5C00D9260250DA22DFACB6EF76F0B8EF76F0B7
:10ED6C00BBEF76F09D8AC9EF76F020EE06F00150ED
:10ED7C00D9260250DA22DFBCC6EF76F0C8EF76F067
:10ED8C00C9EF76F09D9A20EE06F00150D92602507C
:10ED9C00DA22DFAED4EF76F0D6EF76F0D9EF76F05C
:10EDAC00AB8CF9EF76F020EE06F00150D92602502C
:10EDBC00DA22DFBEE4EF76F0E6EF76F0E9EF76F0FC
:10EDCC00AB9CF9EF76F0F9EF76F020EE06F00150FF
:10EDDC00D9260250DA22DFBAF6EF76F0F8EF76F0A9
:10EDEC00F9EF76F0AB98120020EE05F00150D92621
:10EDFC000250DA22DFAA05EF77F007EF77F048EF41
:10EE0C0077F0AC8A20EE05F00150D9260250DA22B8
:10EE1C00DFAC13EF77F015EF77F018EF77F09D88F4
:10EE2C0026EF77F020EE05F00150D9260250DA22B9
:10EE3C00DFBC23EF77F025EF77F026EF77F09D9886
:10EE4C0020EE05F00150D9260250DA22DFAE31EF68
:10EE5C0077F033EF77F036EF77F0AC8C56EF77F046
:10EE6C0020EE05F00150D9260250DA22DFBE41EF28
:10EE7C0077F043EF77F046EF77F0AC9C56EF77F0F6
:10EE8C0056EF77F020EE05F00150D9260250DA2229
:10EE9C00DFBA53EF77F055EF77F056EF77F0AC9A87
:10EEAC001200033404340A6E0A50D8A460EF77F0D1
:10EEBC0062EF77F06CEF77F0000E016E000E026ED1
:10EECC00000E036E000E046ED9EF77F001C005F052
:10EEDC0002C006F003C007F004C008F0200E7CEF5F
:10EEEC0077F0D8900832073206320532E82E77EFE9
:10EEFC0077F00550096E038EFF0E0116FF0E0216F9
:10EF0C00FF0E0316000E0416960E0A5E0ABE93EF51
:10EF1C0077F091EF77F0A9EF77F00A50800A970F0E
:10EF2C00D8B09BEF77F09DEF77F09FEF77F062EF23
:10EF3C0077F0D89004320332023201320A3E9FEF4E
:10EF4C0077F0C1EF77F01F0E0A64AFEF77F0B1EFF7
:10EF5C0077F0B9EF77F062EF77F0D89001360236A0
:10EF6C00033604360A060A50D8A4BFEF77F0C1EF77
:10EF7C0077F0B3EF77F00950D8B4C7EF77F0C9EF5B
:10EF8C0077F0D1EF77F0041E031E021E016C000E09
:10EF9C0002220322042201C001F002C002F003C0CD
:10EFAC0003F004C004F01200010E0A6E01500210AE
:10EFBC00D8B4E3EF77F0E5EF77F005EF78F001C028
:10EFCC00D9FF02C0DAFFDF30E832E832070B046EFB
:10EFDC00080E0460F4EF77F0F6EF77F005EF78F0B9
:10EFEC0001C0D9FF02C0DAFFDF50070B046E040E1C
:10EFFC00046403EF78F005EF78F068EF78F0000E1A
:10F00C000A6E7DEF78F001C0D9FF02C0DAFFDF3065
:10F01C00E832E832070B046E010E056E042A19EF74
:10F02C0078F0D8900536042E17EF78F001C0D9FF90
:10F03C0002C0DAFFDF50070B066E0650020D620E9F
:10F04C00F324D96E000EF420DA6EDECF07F0DDCF9C
:10F05C0008F007C0D9FF08C0DAFF0550DF127DEFBA
:10F06C0078F001C0D9FF02C0DAFFDF30E832E832B5
:10F07C00070B046E010E056E042A47EF78F0D8904A
:10F08C000536042E45EF78F00550FF0A066E01C0D8
:10F09C00D9FF02C0DAFFDF50070B076E0750020DD5
:10F0AC00620EF324D96E000EF420DA6EDECF08F077
:10F0BC00DDCF09F008C0D9FF09C0DAFF0650DF1612
:10F0CC007DEF78F00350046E056A0550000AD8B441
:10F0DC0072EF78F005EF78F00450000AD8B437EFEF
:10F0EC0078F0010AD8B409EF78F005EF78F00A50FF
:10F0FC001200010E096E01500210D8B488EF78F09E
:10F10C008AEF78F0AAEF78F001C0D9FF02C0DAFFDD
:10F11C00DF30E832E832070B036E080E036099EF1C
:10F12C0078F09BEF78F0AAEF78F001C0D9FF02C01D
:10F13C00DAFFDF50070B036E040E0364A8EF78F0C0
:10F14C00AAEF78F00DEF79F0000E096E2EEF79F042
:10F15C0001C0D9FF02C0DAFFDF30E832E832070B1A
:10F16C00036E010E046E032ABEEF78F0D8900436BD
:10F17C00032EBCEF78F00450FF0A056E01C0D9FFD6
:10F18C0002C0DAFFDF50070B066E0650020D6C0E44
:10F19C00F324D96E000EF420DA6EDECF07F0DDCF4B
:10F1AC0008F007C0D9FF08C0DAFF0550DF162EEFB4
:10F1BC0079F001C0D9FF02C0DAFFDF30E832E83263
:10F1CC00070B036E010E046E032AEFEF78F0D89054
:10F1DC000436032EEDEF78F001C0D9FF02C0DAFF40
:10F1EC00DF50070B056E0550020D6C0EF324D96E23
:10F1FC00000EF420DA6EDECF06F0DDCF07F006C08D
:10F20C00D9FF07C0DAFF0450DF122EEF79F001C0EE
:10F21C00D9FF02C0DAFFDFBC16EF79F019EF79F0F5
:10F22C00010E1AEF79F0000E036E046A0450000A06
:10F23C00D8B423EF79F0AAEF78F00350000AD8B4D1
:10F24C00AEEF78F0010AD8B4DFEF78F0AAEF78F0DF
:10F25C0009501200096E0950D8B437EF79F039EF24
:10F26C0079F05BEF79F004BE40EF79F03EEF79F086
:10F27C005BEF79F001C005F002C006F003C007F0A7
:10F28C0004C008F0051E061E071E081E052A000EE7
:10F29C0006220722082205C00BF006C00CF007C09E
:10F2AC000DF008C00EF063EF79F001C00BF002C056
:10F2BC000CF003C00DF004C00EF00150021003104E
:10F2CC000410D8A46CEF79F06EEF79F078EF79F048
:10F2DC00000E016E000E026E000E036E000E046E28
:10F2EC0009EF7AF0960E0A6E82EF79F00A2AD8901E
:10F2FC000E320D320C320B32000E0B14056E000E5A
:10F30C000C14066E000E0D14076EFE0E0E14086E15
:10F31C000550061007100810D8A497EF79F099EF54
:10F32C0079F07CEF79F0A7EF79F00A2A010E0B2621
:10F33C00000E0C220D220E22D8900E320D320C3201
:10F34C000B32000E0B14056E000E0C14066E000E24
:10F35C000D14076EFF0E0E14086E055006100710E4
:10F36C000810D8A4BCEF79F0BEEF79F09BEF79F0E0
:10F37C00C6EF79F00A06D8900B360C360D360E36E1
:10F38C000DBECBEF79F0CDEF79F0D5EF79F0020E21
:10F39C000A60D3EF79F0D5EF79F0C0EF79F00AB0CD
:10F3AC00DAEF79F0DCEF79F0DDEF79F00D9ED890A3
:10F3BC000A320AC005F0066A076A086A05C008F036
:10F3CC00076A066A056A05500B1206500C120750A4
:10F3DC000D1208500E120950D8B4F7EF79F0F9EF6E
:10F3EC0079F001EF7AF004BE00EF7AF0FEEF79F0DD
:10F3FC0001EF7AF00E8E0BC001F00CC002F00DC0C4
:10F40C0003F00EC004F01200A7EF7BF0AC98AC94A4
:10F41C00B89638C0D9FF39C0DAFFDECF01F0DECFA5
:10F42C0002F0DECF03F0DECF04F0000E30EC79F00A
:10F43C0001C013F002C014F003C015F004C016F0A4
:10F44C00000E0F6E240E106EF40E116E4A0E126E1C
:10F45C00D3EC7BF00FC03CF010C03DF011C03EF07F
:10F46C0012C03FF0000E136E000E146E800E156E5F
:10F47C00420E166E3CC00FF03DC010F03EC011F0B5
:10F48C003FC012F0D3EC7BF00FC028F010C029F075
:10F49C0011C02AF012C02BF0000E2C6E000E2D6E37
:10F4AC00800E2E6EBF0E2F6EA0EC7DF028C040F0AB
:10F4BC0029C041F02AC042F02BC043F040C001F0FB
:10F4CC0041C002F042C003F043C004F057EC77F0A7
:10F4DC000150AF6ED2EF7BF0AC98AC84B89638C0CC
:10F4EC00D9FF39C0DAFFDECF01F0DECF02F0DECF7C
:10F4FC0003F0DECF04F0000E30EC79F001C013F015
:10F50C0002C014F003C015F004C016F0000E0F6E0C
:10F51C00240E106EF40E116E4A0E126ED3EC7BF0AC
:10F52C000FC03CF010C03DF011C03EF012C03FF0D7
:10F53C00000E136E000E146E800E156E410E166EBC
:10F54C003CC00FF03DC010F03EC011F03FC012F0B7
:10F55C00D3EC7BF00FC028F010C029F011C02AF0BA
:10F56C0012C02BF0000E2C6E000E2D6E800E2E6E27
:10F57C00BF0E2F6EA0EC7DF028C040F029C041F0EA
:10F58C002AC042F02BC043F064EF7AF0AC98AC94F4
:10F59C00B88638C0D9FF39C0DAFFDECF01F0DECF34
:10F5AC0002F0DECF03F0DECF04F0000E30EC79F089
:10F5BC0001C013F002C014F003C015F004C016F023
:10F5CC00000E0F6E240E106EF40E116E4A0E126E9B
:10F5DC00D3EC7BF00FC03CF010C03DF011C03EF0FE
:10F5EC0012C03FF0000E136E000E146E800E156EDE
:10F5FC00410E166E3CC00FF03DC010F03EC011F035
:10F60C003FC012F0D3EC7BF00FC028F010C029F0F3
:10F61C0011C02AF012C02BF0000E2C6E000E2D6EB5
:10F62C00800E2E6EBF0E2F6EA0EC7DF028C040F029
:10F63C0029C041F02AC042F02BC043F040C001F079
:10F64C0041C002F042C003F043C004F057EC77F025
:10F65C000150AF6E40C001F041C002F042C003F057
:10F66C0043C004F057EC77F002C001F003C002F085
:10F67C0004C003F0046A0150B06ED2EF7BF0AC987A
:10F68C00AC84B88638C0D9FF39C0DAFFDECF01F0C0
:10F69C00DECF02F0DECF03F0DECF04F0000E30EC54
:10F6AC0079F001C013F002C014F003C015F004C0CF
:10F6BC0016F0000E0F6E240E106EF40E116E4A0E24
:10F6CC00126ED3EC7BF00FC03CF010C03DF011C0BB
:10F6DC003EF012C03FF0000E136E000E146E800E42
:10F6EC00156E400E166E3CC00FF03DC010F03EC0C3
:10F6FC0011F03FC012F0D3EC7BF00FC028F010C01B
:10F70C0029F011C02AF012C02BF0000E2C6E000E46
:10F71C002D6E800E2E6EBF0E2F6EA0EC7DF028C0CD
:10F72C0040F029C041F02AC042F02BC043F064EFF6
:10F73C007AF0AC88B896D2EF7BF0AC88B886D2EF72
:10F74C007BF020EE04F03850D9263950DA22DF5005
:10F75C003A6E3B6A3B50000AD8B4B7EF7BF0D2EF5D
:10F76C007BF03A50000AD8B40CEF7AF0010AD8B406
:10F77C0072EF7AF0030AD8B4CCEF7AF0010AD8B45D
:10F78C0045EF7BF0070AD8B49FEF7BF0010AD8B4A1
:10F79C00A3EF7BF0D2EF7BF012001250800B1F6EA8
:10F7AC0012501224266E11AEDEEF7BF0E0EF7BF0F0
:10F7BC00E1EF7BF026802650D8B4E7EF7BF0E9EF41
:10F7CC007BF0FEEF7BF02628D8A4EFEF7BF0F1EF77
:10F7DC007BF0F9EF7BF0000E0F6E000E106E000E3A
:10F7EC00116E000E126E118E000E126E06EF7CF072
:10F7FC00000E0F6E000E106E000E116E000E126ECB
:10F80C001650800B1F1A16501624276E15AE11EFCA
:10F81C007CF013EF7CF014EF7CF027802750D8B4E9
:10F82C001AEF7CF01CEF7CF031EF7CF02728D8A489
:10F83C0022EF7CF024EF7CF02CEF7CF0000E136EAA
:10F84C00000E146E000E156E000E166E158E000E48
:10F85C00166E39EF7CF0000E136E000E146E000E57
:10F86C00156E000E166E1350141015101610D8A429
:10F87C0042EF7CF044EF7CF05CEF7CF0000E0F6EFE
:10F88C00000E106E000E116E000E126E800E111214
:10F89C007F0E12121F5012120FC00FF010C010F07A
:10F8AC0011C011F012C012F09FEF7DF02650D8A4B9
:10F8BC0062EF7CF064EF7CF06EEF7CF0000E0F6E6C
:10F8CC00000E106E000E116E000E126E9FEF7DF08A
:10F8DC00275026C017F0186A175E000E185A7F0EB4
:10F8EC001724206E000E1820216E0FC01BF010C0C4
:10F8FC001CF011C01DF012C01EF0000E0F6E000E99
:10F90C00106E000E116E000E126E000E226E000EA6
:10F91C00236E000E246E000E256E000E276ECFEFA8
:10F92C007CF02750D8B49DEF7CF09FEF7CF0B6EFC5
:10F93C007CF0D8901B361C361D361E36D8900F36F0
:10F94C0010361136123625AEAEEF7CF0B0EF7CF0EF
:10F95C00B1EF7CF00F80D890223623362436253632
:10F96C0013501B5C14501C5815501D5816501E5823
:10F97C00D8A0C3EF7CF0C5EF7CF0CEEF7CF0258CEB
:10F98C0013501B5E14501C5A15501D5A16501E5AFB
:10F99C00272A190E2764D5EF7CF0D7EF7CF097EF70
:10F9AC007CF01B501C101D101E10D8B4E0EF7CF026
:10F9BC00E2EF7CF0FAEF7CF02280FAEF7CF0D8904A
:10F9CC000F3610361136123625AEEFEF7CF0F1EF14
:10F9DC007CF0F2EF7CF00F80D89022362336243660
:10F9EC0025362006D8A0210611AEFFEF7CF001EFE2
:10F9FC007DF0E5EF7CF0000E276E25AE08EF7DF074
:10FA0C000AEF7DF02EEF7DF0FF0E2214176EFF0E25
:10FA1C002314186EFF0E2414196E7F0E25141A6E03
:10FA2C001750181019101A10D8B41FEF7DF021EFD1
:10FA3C007DF025EF7DF0010E276E2EEF7DF00FA0EF
:10FA4C002AEF7DF02CEF7DF02EEF7DF021EF7DF095
:10FA5C002750D8B434EF7DF036EF7DF05AEF7DF0BF
:10FA6C00010E0F26000E10221122122212A041EFBD
:10FA7C007DF043EF7DF05AEF7DF00FC017F010C012
:10FA8C0018F011C019F012C01AF01A341A321932C7
:10FA9C001832173217C00FF018C010F019C011F03F
:10FAAC001AC012F0204A212A21BE65EF7DF02150A8
:10FABC0008E12028D8A065EF7DF067EF7DF072EFAC
:10FACC007DF0000E216E2068000E0F6E000E106E81
:10FADC00000E116E000E126E21BE7FEF7DF02150D4
:10FAEC0006E12004D8B07DEF7DF07FEF7DF08DEF47
:10FAFC007DF0000E216E000E206E000E0F6E000EBB
:10FB0C00106E000E116E000E126E000E1F6E20C0D5
:10FB1C0026F026A094EF7DF096EF7DF099EF7DF026
:10FB2C00118E9AEF7DF0119ED8902630126E50EF08
:10FB3C007CF012002B50800B346E2B502B24366E25
:10FB4C002AAEABEF7DF0ADEF7DF0AEEF7DF0368001
:10FB5C003650D8B4B4EF7DF0B6EF7DF0CBEF7DF03E
:10FB6C003628D8A4BCEF7DF0BEEF7DF0C6EF7DF05B
:10FB7C00000E286E000E296E000E2A6E000E2B6EE3
:10FB8C002A8E000E2B6ED3EF7DF0000E286E000E29
:10FB9C00296E000E2A6E000E2B6E2F50800B356EC8
:10FBAC0034503518D8B4DDEF7DF0DFEF7DF0E0EFA9
:10FBBC007DF0348C2F502F24356E2EAEE8EF7DF077
:10FBCC00EAEF7DF0EBEF7DF035803550D8B4F1EFF6
:10FBDC007DF0F3EF7DF008EF7EF03528D8A4F9EF37
:10FBEC007DF0FBEF7DF003EF7EF0000E2C6E000E2F
:10FBFC002D6E000E2E6E000E2F6E2E8E000E2F6EA2
:10FC0C0010EF7EF0000E2C6E000E2D6E000E2E6E80
:10FC1C00000E2F6E3650355CD8B017EF7EF019EF12
:10FC2C007EF040EF7EF034AC1EEF7EF020EF7EF0E5
:10FC3C0022EF7EF0800E341A36C037F035C036F025
:10FC4C0037C035F028C037F02CC028F037C02CF066
:10FC5C0029C037F02DC029F037C02DF02AC037F05D
:10FC6C002EC02AF037C02EF02BC037F02FC02BF04F
:10FC7C0037C02FF0000E376E365035C030F0316A79
:10FC8C00305E000E315A31BE55EF7EF0315009E135
:10FC9C001A0E305CD8A055EF7EF057EF7EF08EEF49
:10FCAC007EF0285029102A102B10D8A460EF7EF07B
:10FCBC0063EF7EF0010E64EF7EF0000E376E000EE7
:10FCCC00286E000E296E000E2A6E000E2B6E35C0AB
:10FCDC0036F097EF7EF037A076EF7EF078EF7EF07F
:10FCEC007EEF7EF0D89037300109376E80EF7EF0D2
:10FCFC00D890373228A085EF7EF087EF7EF088EF22
:10FD0C007EF0378E2B342B322A3229322832362A87
:10FD1C003550365CD8A095EF7EF097EF7EF071EF02
:10FD2C007EF034BC9CEF7EF09EEF7EF0DEEF7EF03A
:10FD3C003650D8A4A4EF7EF0A6EF7EF0B0EF7EF0A4
:10FD4C00000E286E000E296E000E2A6E000E2B6E11
:10FD5C00FFEF7FF02C5028262D5029222E502A22DE
:10FD6C002F502B222BA0BDEF7EF0BFEF7EF06BEF60
:10FD7C007FF037A0C4EF7EF0C6EF7EF0CCEF7EF0C4
:10FD8C00D89037300109376ECEEF7EF0D8903732ED
:10FD9C0028A0D3EF7EF0D5EF7EF0D6EF7EF0378E35
:10FDAC002B342B322A3229322832362A6BEF7FF051
:10FDBC002C50285C2D5029582E502A582B50800A34
:10FDCC00306E2F50800A3058D8B0EFEF7EF0F1EF44
:10FDDC007EF01CEF7FF028502C5C306E29502D5893
:10FDEC00316E2A502E58326E2B502F58336EFF0E18
:10FDFC003024286EFF0E3120296EFF0E32202A6E21
:10FE0C00FF0E33202B6E800E341A376C3750D8A46B
:10FE1C0012EF7FF014EF7FF024EF7FF0010E282615
:10FE2C00000E29222A222B2224EF7FF02C50285E50
:10FE3C002D50295A2E502A5A2F502B5A28502910FF
:10FE4C002A102B10D8A42DEF7FF02FEF7FF064EF4A
:10FE5C007FF03750D8A435EF7FF037EF7FF064EFA9
:10FE6C007FF0000E286E000E296E000E2A6E000E1A
:10FE7C002B6EFFEF7FF0D890283629362A362B369A
:10FE8C0037AE4BEF7FF04DEF7FF04EEF7FF02880D9
:10FE9C0037A053EF7FF055EF7FF059EF7FF0D8800C
:10FEAC0037365BEF7FF0D89037363650D8B461EFE9
:10FEBC007FF063EF7FF064EF7FF036062AAE69EFD8
:10FECC007FF06BEF7FF041EF7FF0000E356E37AEB9
:10FEDC0072EF7FF074EF7FF08CEF7FF037C030F073
:10FEEC007F0E3016D8B47DEF7FF07FEF7FF083EF7D
:10FEFC007FF0010E356E8CEF7FF028A088EF7FF03D
:10FF0C008AEF7FF08CEF7FF07FEF7FF03550D8B425
:10FF1C0092EF7FF094EF7FF0BFEF7FF0010E282679
:10FF2C00000E29222A222B222BA09FEF7FF0A1EF7B
:10FF3C007FF0BFEF7FF028C030F029C031F02AC02D
:10FF4C0032F02BC033F03334333232323132303280
:10FF5C0030C028F031C029F032C02AF033C02BF069
:10FF6C003628D8B4BCEF7FF0BEEF7FF0BFEF7FF048
:10FF7C00362A3628D8B4C5EF7FF0C7EF7FF0CFEF25
:10FF8C007FF03650D8A4CDEF7FF0CFEF7FF0E1EFCC
:10FF9C007FF0000E286E000E296E000E2A6E000EE9
:10FFAC002B6E3650D8A4DDEF7FF0DFEF7FF0E1EF62
:10FFBC007FF0000E346E36A0E6EF7FF0E8EF7FF0B6
:10FFCC00EBEF7FF02A8EECEF7FF02A9ED890363044
:10FFDC002B6E34AEF4EF7FF0F6EF7FF0F7EF7FF09F
:10FFEC002B8E28C028F029C029F02AC02AF02BC05B
:04FFFC002BF01200D4
:020000040020DA
:08000000FFFFFFFFFFFFFFFF00
:020000040030CA
:0E000000FF02091EFF8181FF0FC00FE00F40BD
:00000001FF
