:0400000044EF13F0C6
:10100000000A0D4C6564204F46460A0D000A0D4C3F
:091010006564204F4E0A0D00003A
:10101A002B50800B346E2B502B24366E2AAE18EFD1
:10102A0008F01AEF08F01BEF08F036803650D8B4F3
:10103A0021EF08F023EF08F038EF08F03628D8A49B
:10104A0029EF08F02BEF08F033EF08F0000E286EB6
:10105A00000E296E000E2A6E000E2B6E2A8E000ECE
:10106A002B6E40EF08F0000E286E000E296E000E5F
:10107A002A6E000E2B6E2F50800B356E34503518A9
:10108A00D8B44AEF08F04CEF08F04DEF08F0348C72
:10109A002F502F24356E2EAE55EF08F057EF08F07B
:1010AA0058EF08F035803550D8B45EEF08F060EF9D
:1010BA0008F075EF08F03528D8A466EF08F068EF55
:1010CA0008F070EF08F0000E2C6E000E2D6E000E68
:1010DA002E6E000E2F6E2E8E000E2F6E7DEF08F0F4
:1010EA00000E2C6E000E2D6E000E2E6E000E2F6E50
:1010FA003650355CD8B084EF08F086EF08F0ADEFD3
:10110A0008F034AC8BEF08F08DEF08F08FEF08F0A1
:10111A00800E341A36C037F035C036F037C035F095
:10112A0028C037F02CC028F037C02CF029C037F07F
:10113A002DC029F037C02DF02AC037F02EC02AF072
:10114A0037C02EF02BC037F02FC02BF037C02FF04E
:10115A00000E376E365035C030F0316A305E000E00
:10116A00315A31BEC2EF08F0315009E11A0E305C33
:10117A00D8A0C2EF08F0C4EF08F0FBEF08F028503F
:10118A0029102A102B10D8A4CDEF08F0D0EF08F0C0
:10119A00010ED1EF08F0000E376E000E286E000E19
:1011AA00296E000E2A6E000E2B6E35C036F004EF43
:1011BA0009F037A0E3EF08F0E5EF08F0EBEF08F0ED
:1011CA00D89037300109376EEDEF08F0D8903732F2
:1011DA0028A0F2EF08F0F4EF08F0F5EF08F0378EE8
:1011EA002B342B322A3229322832362A3550365CB1
:1011FA00D8A002EF09F004EF09F0DEEF08F034BCE2
:10120A0009EF09F00BEF09F04BEF09F03650D8A4BB
:10121A0011EF09F013EF09F01DEF09F0000E286E27
:10122A00000E296E000E2A6E000E2B6E6CEF0AF06D
:10123A002C5028262D5029222E502A222F502B227C
:10124A002BA02AEF09F02CEF09F0D8EF09F037A00C
:10125A0031EF09F033EF09F039EF09F0D890373060
:10126A000109376E3BEF09F0D890373228A040EFDA
:10127A0009F042EF09F043EF09F0378E2B342B3295
:10128A002A3229322832362AD8EF09F02C50285C23
:10129A002D5029582E502A582B50800A306E2F5024
:1012AA00800A3058D8B05CEF09F05EEF09F089EF98
:1012BA0009F028502C5C306E29502D58316E2A5076
:1012CA002E58326E2B502F58336EFF0E3024286E54
:1012DA00FF0E3120296EFF0E32202A6EFF0E3320B8
:1012EA002B6E800E341A376C3750D8A47FEF09F072
:1012FA0081EF09F091EF09F0010E2826000E29224C
:10130A002A222B2291EF09F02C50285E2D50295ABF
:10131A002E502A5A2F502B5A285029102A102B1097
:10132A00D8A49AEF09F09CEF09F0D1EF09F03750F1
:10133A00D8A4A2EF09F0A4EF09F0D1EF09F0000E4A
:10134A00286E000E296E000E2A6E000E2B6E6CEFB0
:10135A000AF0D890283629362A362B3637AEB8EF17
:10136A0009F0BAEF09F0BBEF09F0288037A0C0EF07
:10137A0009F0C2EF09F0C6EF09F0D8803736C8EF96
:10138A0009F0D89037363650D8B4CEEF09F0D0EFFE
:10139A0009F0D1EF09F036062AAED6EF09F0D8EFF8
:1013AA0009F0AEEF09F0000E356E37AEDFEF09F047
:1013BA00E1EF09F0F9EF09F037C030F07F0E30168F
:1013CA00D8B4EAEF09F0ECEF09F0F0EF09F0010EFA
:1013DA00356EF9EF09F028A0F5EF09F0F7EF09F0FB
:1013EA00F9EF09F0ECEF09F03550D8B4FFEF09F046
:1013FA0001EF0AF02CEF0AF0010E2826000E29222E
:10140A002A222B222BA00CEF0AF00EEF0AF02CEF67
:10141A000AF028C030F029C031F02AC032F02BC0BF
:10142A0033F03334333232323132303230C028F092
:10143A0031C029F032C02AF033C02BF03628D8B494
:10144A0029EF0AF02BEF0AF02CEF0AF0362A362899
:10145A00D8B432EF0AF034EF0AF03CEF0AF0365013
:10146A00D8A43AEF0AF03CEF0AF04EEF0AF0000E69
:10147A00286E000E296E000E2A6E000E2B6E365054
:10148A00D8A44AEF0AF04CEF0AF04EEF0AF0000E29
:10149A00346E36A053EF0AF055EF0AF058EF0AF00F
:1014AA002A8E59EF0AF02A9ED89036302B6E34AE27
:1014BA0061EF0AF063EF0AF064EF0AF02B8E28C09E
:1014CA0028F029C029F02AC02AF02BC02BF01200DC
:1014DA001250800B1F6E12501224266E11AE78EF36
:1014EA000AF07AEF0AF07BEF0AF026802650D8B489
:1014FA0081EF0AF083EF0AF098EF0AF02628D8A4C1
:10150A0089EF0AF08BEF0AF093EF0AF0000E0F6EE4
:10151A00000E106E000E116E000E126E118E000E6D
:10152A00126EA0EF0AF0000E0F6E000E106E000E83
:10153A00116E000E126E1650800B1F1A16501624CA
:10154A00276E15AEABEF0AF0ADEF0AF0AEEF0AF078
:10155A0027802750D8B4B4EF0AF0B6EF0AF0CBEFE1
:10156A000AF02728D8A4BCEF0AF0BEEF0AF0C6EFAB
:10157A000AF0000E136E000E146E000E156E000EA9
:10158A00166E158E000E166ED3EF0AF0000E136E4D
:10159A00000E146E000E156E000E166E1350141007
:1015AA0015101610D8A4DCEF0AF0DEEF0AF0F6EFF9
:1015BA000AF0000E0F6E000E106E000E116E000E75
:1015CA00126E800E11127F0E12121F5012120FC0CD
:1015DA000FF010C010F011C011F012C012F039EF64
:1015EA000CF02650D8A4FCEF0AF0FEEF0AF008EF40
:1015FA000BF0000E0F6E000E106E000E116E000E34
:10160A00126E39EF0CF0275026C017F0186A175ED1
:10161A00000E185A7F0E1724206E000E1820216E15
:10162A000FC01BF010C01CF011C01DF012C01EF03C
:10163A00000E0F6E000E106E000E116E000E126E6E
:10164A00000E226E000E236E000E246E000E256E12
:10165A00000E276E69EF0BF02750D8B437EF0BF066
:10166A0039EF0BF050EF0BF0D8901B361C361D36B5
:10167A001E36D8900F3610361136123625AE48EF80
:10168A000BF04AEF0BF04BEF0BF00F80D89022369D
:10169A0023362436253613501B5C14501C5815501B
:1016AA001D5816501E58D8A05DEF0BF05FEF0BF0D7
:1016BA0068EF0BF0258C13501B5E14501C5A155002
:1016CA001D5A16501E5A272A190E27646FEF0BF05F
:1016DA0071EF0BF031EF0BF01B501C101D101E1098
:1016EA00D8B47AEF0BF07CEF0BF094EF0BF022807A
:1016FA0094EF0BF0D8900F3610361136123625AE0D
:10170A0089EF0BF08BEF0BF08CEF0BF00F80D8907A
:10171A0022362336243625362006D8A0210611AED5
:10172A0099EF0BF09BEF0BF07FEF0BF0000E276E9B
:10173A0025AEA2EF0BF0A4EF0BF0C8EF0BF0FF0EF3
:10174A002214176EFF0E2314186EFF0E2414196E3E
:10175A007F0E25141A6E1750181019101A10D8B4C3
:10176A00B9EF0BF0BBEF0BF0BFEF0BF0010E276EDA
:10177A00C8EF0BF00FA0C4EF0BF0C6EF0BF0C8EFE9
:10178A000BF0BBEF0BF02750D8B4CEEF0BF0D0EF35
:10179A000BF0F4EF0BF0010E0F26000E10221122AF
:1017AA00122212A0DBEF0BF0DDEF0BF0F4EF0BF0DF
:1017BA000FC017F010C018F011C019F012C01AF0BB
:1017CA001A341A3219321832173217C00FF018C0E9
:1017DA0010F019C011F01AC012F0204A212A21BEB5
:1017EA00FFEF0BF0215008E12028D8A0FFEF0BF003
:1017FA0001EF0CF00CEF0CF0000E216E2068000EC9
:10180A000F6E000E106E000E116E000E126E21BECB
:10181A0019EF0CF0215006E12004D8B017EF0CF0B4
:10182A0019EF0CF027EF0CF0000E216E000E206E5F
:10183A00000E0F6E000E106E000E116E000E126E6C
:10184A00000E1F6E20C026F026A02EEF0CF030EFFF
:10185A000CF033EF0CF0118E34EF0CF0119ED8908F
:10186A002630126EEAEF0AF01200D7EF0DF0AC98AC
:10187A00AC94B89638C0D9FF39C0DAFFDECF01F090
:10188A00DECF02F0DECF03F0DECF04F0000E03EC71
:10189A000EF001C013F002C014F003C015F004C02A
:1018AA0016F0000E0F6E240E106EF40E116E4A0E14
:1018BA00126E6DEC0AF00FC03CF010C03DF011C082
:1018CA003EF012C03FF0000E136E000E146E800E32
:1018DA00156E420E166E3CC00FF03DC010F03EC0B1
:1018EA0011F03FC012F06DEC0AF00FC028F010C0E2
:1018FA0029F011C02AF012C02BF0000E2C6E000E37
:10190A002D6E800E2E6EBF0E2F6E0DEC08F028C0C5
:10191A0040F029C041F02AC042F02BC043F040C039
:10192A0001F041C002F042C003F043C004F033ECBE
:10193A0010F00150AF6E02EF0EF0AC98AC84B8967E
:10194A0038C0D9FF39C0DAFFDECF01F0DECF02F0AE
:10195A00DECF03F0DECF04F0000E03EC0EF001C080
:10196A0013F002C014F003C015F004C016F0000E04
:10197A000F6E240E106EF40E116E4A0E126E6DEC7E
:10198A000AF00FC03CF010C03DF011C03EF012C08A
:10199A003FF0000E136E000E146E800E156E410E8F
:1019AA00166E3CC00FF03DC010F03EC011F03FC0B3
:1019BA0012F06DEC0AF00FC028F010C029F011C027
:1019CA002AF012C02BF0000E2C6E000E2D6E800E27
:1019DA002E6EBF0E2F6E0DEC08F028C040F029C005
:1019EA0041F02AC042F02BC043F094EF0CF0AC98BF
:1019FA00AC94B88638C0D9FF39C0DAFFDECF01F01F
:101A0A00DECF02F0DECF03F0DECF04F0000E03ECEF
:101A1A000EF001C013F002C014F003C015F004C0A8
:101A2A0016F0000E0F6E240E106EF40E116E4A0E92
:101A3A00126E6DEC0AF00FC03CF010C03DF011C000
:101A4A003EF012C03FF0000E136E000E146E800EB0
:101A5A00156E410E166E3CC00FF03DC010F03EC030
:101A6A0011F03FC012F06DEC0AF00FC028F010C060
:101A7A0029F011C02AF012C02BF0000E2C6E000EB5
:101A8A002D6E800E2E6EBF0E2F6E0DEC08F028C044
:101A9A0040F029C041F02AC042F02BC043F040C0B8
:101AAA0001F041C002F042C003F043C004F033EC3D
:101ABA0010F00150AF6E40C001F041C002F042C0C8
:101ACA0003F043C004F033EC10F002C001F003C08D
:101ADA0002F004C003F0046A0150B06E02EF0EF087
:101AEA00AC98AC84B88638C0D9FF39C0DAFFDECFEB
:101AFA0001F0DECF02F0DECF03F0DECF04F0000EFD
:101B0A0003EC0EF001C013F002C014F003C015F08C
:101B1A0004C016F0000E0F6E240E106EF40E116E35
:101B2A004A0E126E6DEC0AF00FC03CF010C03DF088
:101B3A0011C03EF012C03FF0000E136E000E146E7C
:101B4A00800E156E400E166E3CC00FF03DC010F0B0
:101B5A003EC011F03FC012F06DEC0AF00FC028F041
:101B6A0010C029F011C02AF012C02BF0000E2C6E02
:101B7A00000E2D6E800E2E6EBF0E2F6E0DEC08F02D
:101B8A0028C040F029C041F02AC042F02BC043F0DF
:101B9A0094EF0CF0AC88B89602EF0EF0AC88B886D9
:101BAA0002EF0EF020EE04F03850D9263950DA222E
:101BBA00DF503A6E3B6A3B50000AD8B4E7EF0DF0AB
:101BCA0002EF0EF03A50000AD8B43CEF0CF0010ACA
:101BDA00D8B4A2EF0CF0030AD8B4FCEF0CF0010A57
:101BEA00D8B475EF0DF0070AD8B4CFEF0DF0010A9B
:101BFA00D8B4D3EF0DF002EF0EF01200096E0950BF
:101C0A00D8B40AEF0EF00CEF0EF02EEF0EF004BE71
:101C1A0013EF0EF011EF0EF02EEF0EF001C005F0EB
:101C2A0002C006F003C007F004C008F0051E061E35
:101C3A00071E081E052A000E06220722082205C0D2
:101C4A000BF006C00CF007C00DF008C00EF036EF1E
:101C5A000EF001C00BF002C00CF003C00DF004C07E
:101C6A000EF00150021003100410D8A43FEF0EF03A
:101C7A0041EF0EF04BEF0EF0000E016E000E026EF9
:101C8A00000E036E000E046EDCEF0EF0960E0A6E66
:101C9A0055EF0EF00A2AD8900E320D320C320B3262
:101CAA00000E0B14056E000E0C14066E000E0D14B9
:101CBA00076EFE0E0E14086E055006100710081067
:101CCA00D8A46AEF0EF06CEF0EF04FEF0EF07AEF39
:101CDA000EF00A2A010E0B26000E0C220D220E22ED
:101CEA00D8900E320D320C320B32000E0B14056EE8
:101CFA00000E0C14066E000E0D14076EFF0E0E1465
:101D0A00086E0550061007100810D8A48FEF0EF0C1
:101D1A0091EF0EF06EEF0EF099EF0EF00A06D890E2
:101D2A000B360C360D360E360DBE9EEF0EF0A0EFBA
:101D3A000EF0A8EF0EF0020E0A60A6EF0EF0A8EF62
:101D4A000EF093EF0EF00AB0ADEF0EF0AFEF0EF01B
:101D5A00B0EF0EF00D9ED8900A320AC005F0066A5E
:101D6A00076A086A05C008F0076A066A056A055024
:101D7A000B1206500C1207500D1208500E12095081
:101D8A00D8B4CAEF0EF0CCEF0EF0D4EF0EF004BECA
:101D9A00D3EF0EF0D1EF0EF0D4EF0EF00E8E0BC093
:101DAA0001F00CC002F00DC003F00EC004F01200E6
:101DBA00010E096E01500210D8B4E6EF0EF0E8EFFA
:101DCA000EF008EF0FF001C0D9FF02C0DAFFDF30D2
:101DDA00E832E832070B036E080E0360F7EF0EF0E5
:101DEA00F9EF0EF008EF0FF001C0D9FF02C0DAFFD9
:101DFA00DF50070B036E040E036406EF0FF008EFC3
:101E0A000FF06BEF0FF0000E096E8CEF0FF001C0B0
:101E1A00D9FF02C0DAFFDF30E832E832070B036E7F
:101E2A00010E046E032A1CEF0FF0D8900436032E1D
:101E3A001AEF0FF00450FF0A056E01C0D9FF02C065
:101E4A00DAFFDF50070B066E0650020D6C0EF32404
:101E5A00D96E000EF420DA6EDECF07F0DDCF08F07F
:101E6A0007C0D9FF08C0DAFF0550DF168CEF0FF064
:101E7A0001C0D9FF02C0DAFFDF30E832E832070BCF
:101E8A00036E010E046E032A4DEF0FF0D89004364C
:101E9A00032E4BEF0FF001C0D9FF02C0DAFFDF506B
:101EAA00070B056E0550020D6C0EF324D96E000E59
:101EBA00F420DA6EDECF06F0DDCF07F006C0D9FFD8
:101ECA0007C0DAFF0450DF128CEF0FF001C0D9FF10
:101EDA0002C0DAFFDFBC74EF0FF077EF0FF0010EEC
:101EEA0078EF0FF0000E036E046A0450000AD8B4AB
:101EFA0081EF0FF008EF0FF00350000AD8B40CEF8F
:101F0A000FF0010AD8B43DEF0FF008EF0FF00950B7
:101F1A001200010E0A6E01500210D8B497EF0FF0AA
:101F2A0099EF0FF0B9EF0FF001C0D9FF02C0DAFF45
:101F3A00DF30E832E832070B046E080E0460A8EFBF
:101F4A000FF0AAEF0FF0B9EF0FF001C0D9FF02C0EE
:101F5A00DAFFDF50070B046E040E0464B7EF0FF0CC
:101F6A00B9EF0FF01CEF10F0000E0A6E31EF10F00F
:101F7A0001C0D9FF02C0DAFFDF30E832E832070BCE
:101F8A00046E010E056E042ACDEF0FF0D8900536C7
:101F9A00042ECBEF0FF001C0D9FF02C0DAFFDF50E9
:101FAA00070B066E0650020D620EF324D96E000E60
:101FBA00F420DA6EDECF07F0DDCF08F007C0D9FFD4
:101FCA0008C0DAFF0550DF1231EF10F001C0D9FF67
:101FDA0002C0DAFFDF30E832E832070B046E010E86
:101FEA00056E042AFBEF0FF0D8900536042EF9EFA0
:101FFA000FF00550FF0A066E01C0D9FF02C0DAFFD2
:10200A00DF50070B076E0750020D620EF324D96EDC
:10201A00000EF420DA6EDECF08F0DDCF09F008C03A
:10202A00D9FF09C0DAFF0650DF1631EF10F003506E
:10203A00046E056A0550000AD8B426EF10F0B9EF0D
:10204A000FF00450000AD8B4EBEF0FF0010AD8B42D
:10205A00BDEF0FF0B9EF0FF00A5012000334043449
:10206A000A6E0A50D8A43CEF10F03EEF10F048EF89
:10207A0010F0000E016E000E026E000E036E000ECE
:10208A00046EB5EF10F001C005F002C006F003C0FF
:10209A0007F004C008F0200E58EF10F0D89008326C
:1020AA00073206320532E82E53EF10F00550096E5A
:1020BA00038EFF0E0116FF0E0216FF0E0316000E08
:1020CA000416960E0A5E0ABE6FEF10F06DEF10F05E
:1020DA0085EF10F00A50800A970FD8B077EF10F00A
:1020EA0079EF10F07BEF10F03EEF10F0D890043249
:1020FA000332023201320A3E7BEF10F09DEF10F0FC
:10210A001F0E0A648BEF10F08DEF10F095EF10F0B0
:10211A003EEF10F0D89001360236033604360A062E
:10212A000A50D8A49BEF10F09DEF10F08FEF10F03B
:10213A000950D8B4A3EF10F0A5EF10F0ADEF10F0EE
:10214A00041E031E021E016C000E02220322042238
:10215A0001C001F002C002F003C003F004C004F0A1
:10216A00120020EE05F00150D9260250DA22DFAA29
:10217A00C1EF10F0C3EF10F004EF11F0AC8A20EEBB
:10218A0005F00150D9260250DA22DFACCFEF10F069
:10219A00D1EF10F0D4EF10F09D88E2EF10F020EEAE
:1021AA0005F00150D9260250DA22DFBCDFEF10F029
:1021BA00E1EF10F0E2EF10F09D9820EE05F00150EB
:1021CA00D9260250DA22DFAEEDEF10F0EFEF10F071
:1021DA00F2EF10F0AC8C12EF11F020EE05F0015086
:1021EA00D9260250DA22DFBEFDEF10F0FFEF10F021
:1021FA0002EF11F0AC9C12EF11F012EF11F020EE89
:10220A0005F00150D9260250DA22DFBA0FEF11F099
:10221A0011EF11F012EF11F0AC9A120020EE06F055
:10222A000150D9260250DA22DFAA1EEF11F020EF60
:10223A0011F061EF11F0AB8820EE06F00150D926BB
:10224A000250DA22DFAC2CEF11F02EEF11F031EF51
:10225A0011F09D8A3FEF11F020EE06F00150D926C9
:10226A000250DA22DFBC3CEF11F03EEF11F03FEFF3
:10227A0011F09D9A20EE06F00150D9260250DA227A
:10228A00DFAE4AEF11F04CEF11F04FEF11F0AB8CCB
:10229A006FEF11F020EE06F00150D9260250DA2233
:1022AA00DFBE5AEF11F05CEF11F05FEF11F0AB9C5B
:1022BA006FEF11F06FEF11F020EE06F00150D92602
:1022CA000250DA22DFBA6CEF11F06EEF11F06FEF05
:1022DA0011F0AB9812000B500C10D8B477EF11F034
:1022EA0079EF11F099EF11F00BC0D9FF0CC0DAFFAA
:1022FA00DF30E832E832070B0D6E080E0D6088EF0A
:10230A0011F08AEF11F099EF11F00BC0D9FF0CC050
:10231A00DAFFDF50070B0D6E040E0D6497EF11F014
:10232A0099EF11F09DEF11F0000E0E6EB3EF11F060
:10233A000BC001F00CC002F0DDEC0EF00E6E0BC00B
:10234A0001F00CC002F00BC0D9FF0CC0DAFF000E7E
:10235A00DFBE010E036E8EEC0FF00E6E0E501200F1
:10236A0078EC13F0570E016E000E026E24EC13F097
:10237A00566E5604D8A4C4EF11F0C6EF11F0B7EFA9
:10238A0011F0410E5718D8A4CDEF11F0CFEF11F08C
:10239A00DDEF11F00D0E026E100E036EA7EC12F0B7
:1023AA00770E0B6E000E0C6EF8EC11F0B7EF11F011
:1023BA00420E5718D8A4E4EF11F0E6EF11F0F4EF4B
:1023CA0011F0770E0B6E000E0C6E33EC12F0010E4C
:1023DA00026E100E036EA7EC12F0B7EF11F0B7EF12
:1023EA0011F000EF00F00B500C10D8A4FFEF11F021
:1023FA0001EF12F003EF12F032EF12F07DC00EF08F
:10240A000BC0D9FF0CC0DAFFDF500F0B0D6E0E5058
:10241A000D18F80B0D180E6E0BC0D9FF0CC0DAFFA1
:10242A00DF38070B0D6E0D460D460D460E500D1882
:10243A00C70B0D180E6E0E9C0BC0D9FF0CC0DAFF2D
:10244A00DFAE02D00E8E01D00E9E0E0E016E000E71
:10245A00026E010E036E8EEC0FF012000B500C1080
:10246A00D8A43AEF12F03CEF12F03EEF12F06DEF03
:10247A0012F07CC00EF00BC0D9FF0CC0DAFFDF509F
:10248A000F0B0D6E0E500D18F80B0D180E6E0BC0BB
:10249A00D9FF0CC0DAFFDF38070B0D6E0D460D466B
:1024AA000D460E500D18C70B0D180E6E0E9C0BC064
:1024BA00D9FF0CC0DAFFDFAE02D00E8E01D00E9E1D
:1024CA000E0E016E000E026E000E036E8EEC0FF001
:1024DA0012000F501010D8A475EF12F077EF12F017
:1024EA0079EF12F0A6EF12F07EC012F00FC0D9FFFA
:1024FA0010C0DAFFDF500F0B116E12501118F80BD3
:10250A001118126E0FC0D9FF10C0DAFFDF38070B9F
:10251A00116E11461146114612501118C70B1118A7
:10252A00126E129C0FC0D9FF10C0DAFFDFAE02D0C4
:10253A00128E01D0129E120E0B6E000E0C6E70ECF3
:10254A0011F01200000E076E000E066E0250031004
:10255A00D8B4B2EF12F0B4EF12F0DCEF12F0C7EF1A
:10256A0012F006500224046E07500320056E04C0C0
:10257A00F6FF05C0F7FFF86A0800F5506DEC13F096
:10258A00064A072A06500224046E07500320056EE5
:10259A0004C0F6FF05C0F7FFF86A0800F550000905
:1025AA00D8A4DAEF12F0DCEF12F0B6EF12F0120054
:1025BA00800E466E250E476E000E486E000E496E5E
:1025CA00000E4A6E4B8A4B9C4B9E4C8A4C9C4C9EEE
:1025DA00000E4E6E000E4F6E000E506E000E516EC3
:1025EA00000E546E000E556E000E526E000E536EA3
:1025FA00460E446E000E456E04EC13F01200445071
:10260A004510D8B40BEF13F00DEF13F023EF13F0CE
:10261A00AB9E948C948E44C038F045C039F03AECA5
:10262A000CF044C001F045C002F0B6EC10F044C012
:10263A0001F045C002F013EC11F0AB8E1200000E4F
:10264A00036E01500210D8B42DEF13F02FEF13F0E0
:10265A0042EF13F09EAA34EF13F036EF13F040EF77
:10266A0013F001C0D9FF02C0DAFFAECFDFFF010EBF
:10267A00036E42EF13F0000E036E03501200BA0EFF
:10268A00F66E260EF76E000EF86E00EE58F010EE9B
:10269A0020F00900F5CFEEFFE550E150FAE100EE37
:1026AA0078F0070EEE6AE806FDE10001B5EF11F0D9
:1026BA00800F810F820F830F840F890F8A0F8B0F70
:1026CA008C0F8D0F920F930F940F950F960F010297
:1026DA00016EACA273EF13F075EF13F06EEF13F007
:1026EA0001C0ADFF1200770E0F6E000E106E6EEC79
:0826FA0012F0DDEC12F01200F9
:020000040020DA
:08000000FFFFFFFFFFFFFFFF00
:020000040030CA
:0E000000FF02091EFF8181FF0FC00FE00F40BD
:00000001FF
